{
  "contracts/Simplify.sol": {
    "Simplify_314": {
      "abi": [
        {
          "inputs": [],
          "stateMutability": "nonpayable",
          "type": "constructor"
        },
        {
          "anonymous": false,
          "inputs": [
            {
              "indexed": false,
              "internalType": "uint32",
              "name": "_blockToUnlockLiquidity",
              "type": "uint32"
            },
            {
              "indexed": false,
              "internalType": "uint256",
              "name": "value",
              "type": "uint256"
            }
          ],
          "name": "AddLiquidity",
          "type": "event"
        },
        {
          "anonymous": false,
          "inputs": [
            {
              "indexed": false,
              "internalType": "uint256",
              "name": "value",
              "type": "uint256"
            }
          ],
          "name": "RemoveLiquidity",
          "type": "event"
        },
        {
          "anonymous": false,
          "inputs": [
            {
              "indexed": true,
              "internalType": "address",
              "name": "sender",
              "type": "address"
            },
            {
              "indexed": false,
              "internalType": "uint256",
              "name": "amount0In",
              "type": "uint256"
            },
            {
              "indexed": false,
              "internalType": "uint256",
              "name": "amount1In",
              "type": "uint256"
            },
            {
              "indexed": false,
              "internalType": "uint256",
              "name": "amount0Out",
              "type": "uint256"
            },
            {
              "indexed": false,
              "internalType": "uint256",
              "name": "amount1Out",
              "type": "uint256"
            }
          ],
          "name": "Swap",
          "type": "event"
        },
        {
          "anonymous": false,
          "inputs": [
            {
              "indexed": true,
              "internalType": "address",
              "name": "from",
              "type": "address"
            },
            {
              "indexed": true,
              "internalType": "address",
              "name": "to",
              "type": "address"
            },
            {
              "indexed": false,
              "internalType": "uint256",
              "name": "value",
              "type": "uint256"
            }
          ],
          "name": "Transfer",
          "type": "event"
        },
        {
          "inputs": [],
          "name": "_maxWallet",
          "outputs": [
            {
              "internalType": "uint256",
              "name": "",
              "type": "uint256"
            }
          ],
          "stateMutability": "view",
          "type": "function"
        },
        {
          "inputs": [
            {
              "internalType": "uint32",
              "name": "_blockToUnlockLiquidity",
              "type": "uint32"
            }
          ],
          "name": "addLiquidity",
          "outputs": [],
          "stateMutability": "payable",
          "type": "function"
        },
        {
          "inputs": [
            {
              "internalType": "address",
              "name": "account",
              "type": "address"
            }
          ],
          "name": "balanceOf",
          "outputs": [
            {
              "internalType": "uint256",
              "name": "",
              "type": "uint256"
            }
          ],
          "stateMutability": "view",
          "type": "function"
        },
        {
          "inputs": [],
          "name": "blockToUnlockLiquidity",
          "outputs": [
            {
              "internalType": "uint32",
              "name": "",
              "type": "uint32"
            }
          ],
          "stateMutability": "view",
          "type": "function"
        },
        {
          "inputs": [],
          "name": "decimals",
          "outputs": [
            {
              "internalType": "uint8",
              "name": "",
              "type": "uint8"
            }
          ],
          "stateMutability": "view",
          "type": "function"
        },
        {
          "inputs": [
            {
              "internalType": "bool",
              "name": "_maxWalletEnable",
              "type": "bool"
            }
          ],
          "name": "enableMaxWallet",
          "outputs": [],
          "stateMutability": "nonpayable",
          "type": "function"
        },
        {
          "inputs": [
            {
              "internalType": "bool",
              "name": "_tradingEnable",
              "type": "bool"
            }
          ],
          "name": "enableTrading",
          "outputs": [],
          "stateMutability": "nonpayable",
          "type": "function"
        },
        {
          "inputs": [
            {
              "internalType": "uint32",
              "name": "_blockToUnlockLiquidity",
              "type": "uint32"
            }
          ],
          "name": "extendLiquidityLock",
          "outputs": [],
          "stateMutability": "nonpayable",
          "type": "function"
        },
        {
          "inputs": [
            {
              "internalType": "uint256",
              "name": "value",
              "type": "uint256"
            },
            {
              "internalType": "bool",
              "name": "_buy",
              "type": "bool"
            }
          ],
          "name": "getAmountOut",
          "outputs": [
            {
              "internalType": "uint256",
              "name": "",
              "type": "uint256"
            }
          ],
          "stateMutability": "view",
          "type": "function"
        },
        {
          "inputs": [],
          "name": "getReserves",
          "outputs": [
            {
              "internalType": "uint256",
              "name": "",
              "type": "uint256"
            },
            {
              "internalType": "uint256",
              "name": "",
              "type": "uint256"
            }
          ],
          "stateMutability": "view",
          "type": "function"
        },
        {
          "inputs": [],
          "name": "liquidityAdded",
          "outputs": [
            {
              "internalType": "bool",
              "name": "",
              "type": "bool"
            }
          ],
          "stateMutability": "view",
          "type": "function"
        },
        {
          "inputs": [],
          "name": "liquidityProvider",
          "outputs": [
            {
              "internalType": "address",
              "name": "",
              "type": "address"
            }
          ],
          "stateMutability": "view",
          "type": "function"
        },
        {
          "inputs": [],
          "name": "maxWalletEnable",
          "outputs": [
            {
              "internalType": "bool",
              "name": "",
              "type": "bool"
            }
          ],
          "stateMutability": "view",
          "type": "function"
        },
        {
          "inputs": [],
          "name": "name",
          "outputs": [
            {
              "internalType": "string",
              "name": "",
              "type": "string"
            }
          ],
          "stateMutability": "view",
          "type": "function"
        },
        {
          "inputs": [],
          "name": "owner",
          "outputs": [
            {
              "internalType": "address",
              "name": "",
              "type": "address"
            }
          ],
          "stateMutability": "view",
          "type": "function"
        },
        {
          "inputs": [
            {
              "internalType": "address[]",
              "name": "_investors",
              "type": "address[]"
            }
          ],
          "name": "presale",
          "outputs": [],
          "stateMutability": "nonpayable",
          "type": "function"
        },
        {
          "inputs": [],
          "name": "presaleEnable",
          "outputs": [
            {
              "internalType": "bool",
              "name": "",
              "type": "bool"
            }
          ],
          "stateMutability": "view",
          "type": "function"
        },
        {
          "inputs": [],
          "name": "removeLiquidity",
          "outputs": [],
          "stateMutability": "nonpayable",
          "type": "function"
        },
        {
          "inputs": [],
          "name": "renounceOwnership",
          "outputs": [],
          "stateMutability": "nonpayable",
          "type": "function"
        },
        {
          "inputs": [
            {
              "internalType": "uint256",
              "name": "_maxWallet_",
              "type": "uint256"
            }
          ],
          "name": "setMaxWallet",
          "outputs": [],
          "stateMutability": "nonpayable",
          "type": "function"
        },
        {
          "inputs": [],
          "name": "symbol",
          "outputs": [
            {
              "internalType": "string",
              "name": "",
              "type": "string"
            }
          ],
          "stateMutability": "view",
          "type": "function"
        },
        {
          "inputs": [],
          "name": "totalSupply",
          "outputs": [
            {
              "internalType": "uint256",
              "name": "",
              "type": "uint256"
            }
          ],
          "stateMutability": "view",
          "type": "function"
        },
        {
          "inputs": [],
          "name": "tradingEnable",
          "outputs": [
            {
              "internalType": "bool",
              "name": "",
              "type": "bool"
            }
          ],
          "stateMutability": "view",
          "type": "function"
        },
        {
          "inputs": [
            {
              "internalType": "address",
              "name": "to",
              "type": "address"
            },
            {
              "internalType": "uint256",
              "name": "value",
              "type": "uint256"
            }
          ],
          "name": "transfer",
          "outputs": [
            {
              "internalType": "bool",
              "name": "",
              "type": "bool"
            }
          ],
          "stateMutability": "nonpayable",
          "type": "function"
        },
        {
          "stateMutability": "payable",
          "type": "receive"
        }
      ],
      "evm": {
        "bytecode": {
          "linkReferences": {},
          "object": "60806040526009805460ff1916905569d3c21bcecceda1000000600b553480156200002957600080fd5b506040518060400160405280600c81526020016b14da5b5c1b1a599e480ccc4d60a21b81525060405180604001604052806004815260200163053494d560e41b815250600b54826004908162000080919062000204565b5060056200008f838262000204565b506001819055620000a260c882620002d0565b600255600680546001600160a01b031916331790556007805462ff00ff60a01b1916600160b01b179055620000d9600a82620002d0565b336000908152602081905260409020819055600290620000fa9083620002f3565b620001069190620002d0565b6008819055336000908152602081905260408120549091620001299084620002f3565b620001359190620002f3565b3060009081526020819052604090205550506007805460ff60a81b19169055506200031b9050565b634e487b7160e01b600052604160045260246000fd5b600181811c908216806200018857607f821691505b602082108103620001a957634e487b7160e01b600052602260045260246000fd5b50919050565b601f821115620001ff576000816000526020600020601f850160051c81016020861015620001da5750805b601f850160051c820191505b81811015620001fb57828155600101620001e6565b5050505b505050565b81516001600160401b038111156200022057620002206200015d565b620002388162000231845462000173565b84620001af565b602080601f831160018114620002705760008415620002575750858301515b600019600386901b1c1916600185901b178555620001fb565b600085815260208120601f198616915b82811015620002a15788860151825594840194600190910190840162000280565b5085821015620002c05787850151600019600388901b60f8161c191681555b5050505050600190811b01905550565b600082620002ee57634e487b7160e01b600052601260045260246000fd5b500490565b818103818111156200031557634e487b7160e01b600052601160045260246000fd5b92915050565b611308806200032b6000396000f3fe60806040526004361061014f5760003560e01c806367b9a286116100b657806395d89b411161006f57806395d89b41146103ee5780639a540abf14610403578063a9059cbb14610416578063ae19139e14610436578063d944392314610456578063f275f64b1461047757600080fd5b806367b9a2861461033e57806370a0823114610353578063715018a6146103895780637ec18cf61461039e57806382247ec0146103b85780638da5cb5b146103ce57600080fd5b806318160ddd1161010857806318160ddd1461027557806327de2e851461028a578063313ce567146102aa5780635b8bec55146102c65780635d0044ca146102fe57806365029d821461031e57600080fd5b806304c0c4761461016357806306fdde031461019a5780630902f1ac146101bc57806311106ee2146101f557806312a54b62146102235780631693e8d41461025457600080fd5b3661015e5761015c610497565b005b600080fd5b34801561016f57600080fd5b506003546101809063ffffffff1681565b60405163ffffffff90911681526020015b60405180910390f35b3480156101a657600080fd5b506101af6105de565b6040516101919190610f81565b3480156101c857600080fd5b506101e0306000908152602081905260409020544791565b60408051928352602083019190915201610191565b34801561020157600080fd5b50610215610210366004610fe5565b610670565b604051908152602001610191565b34801561022f57600080fd5b5060075461024490600160b01b900460ff1681565b6040519015158152602001610191565b34801561026057600080fd5b5060075461024490600160a01b900460ff1681565b34801561028157600080fd5b50600154610215565b34801561029657600080fd5b5061015c6102a5366004611011565b6106d7565b3480156102b657600080fd5b5060405160128152602001610191565b3480156102d257600080fd5b506007546102e6906001600160a01b031681565b6040516001600160a01b039091168152602001610191565b34801561030a57600080fd5b5061015c61031936600461103e565b610777565b34801561032a57600080fd5b5061015c610339366004611084565b6107a6565b34801561034a57600080fd5b5061015c6108ae565b34801561035f57600080fd5b5061021561036e366004611149565b6001600160a01b031660009081526020819052604090205490565b34801561039557600080fd5b5061015c610991565b3480156103aa57600080fd5b506009546102449060ff1681565b3480156103c457600080fd5b5061021560025481565b3480156103da57600080fd5b506006546102e6906001600160a01b031681565b3480156103fa57600080fd5b506101af6109cd565b61015c610411366004611011565b6109dc565b34801561042257600080fd5b50610244610431366004611164565b610b66565b34801561044257600080fd5b5061015c61045136600461118e565b610b9a565b34801561046257600080fd5b5060075461024490600160a81b900460ff1681565b34801561048357600080fd5b5061015c61049236600461118e565b610be2565b600754600160a01b900460ff166104ea5760405162461bcd60e51b815260206004820152601260248201527154726164696e67206e6f7420656e61626c6560701b60448201526064015b60405180910390fd5b30600090815260208190526040812054479061050690346111bf565b61051091906111d6565b600754909150600160b01b900460ff1615610586576002543360009081526020819052604090205461054290836111f8565b11156105865760405162461bcd60e51b815260206004820152601360248201527213585e081dd85b1b195d08195e18d959591959606a1b60448201526064016104e1565b610591303383610c2a565b604080513481526000602082018190528183015260608101839052905133917f49926bbebe8474393f434dfa4f78694c0923efa07d19f2284518bfabd06eb737919081900360800190a250565b6060600480546105ed9061120b565b80601f01602080910402602001604051908101604052809291908181526020018280546106199061120b565b80156106665780601f1061063b57610100808354040283529160200191610666565b820191906000526020600020905b81548152906001019060200180831161064957829003601f168201915b5050505050905090565b600080600061068c306000908152602081905260409020544791565b9150915083156106bd576106a085836111f8565b6106aa82876111bf565b6106b491906111d6565b925050506106d1565b6106c785826111f8565b6106aa83876111bf565b92915050565b6007546001600160a01b031633146107015760405162461bcd60e51b81526004016104e190611245565b60035463ffffffff80831691161061075b5760405162461bcd60e51b815260206004820152601a60248201527f596f752063616e27742073686f7274656e206475726174696f6e00000000000060448201526064016104e1565b6003805463ffffffff191663ffffffff92909216919091179055565b6006546001600160a01b031633146107a15760405162461bcd60e51b81526004016104e190611287565b600255565b6006546001600160a01b031633146107d05760405162461bcd60e51b81526004016104e190611287565b60095460ff16156108235760405162461bcd60e51b815260206004820152601760248201527f50726573616c6520616c726561647920656e61626c656400000000000000000060448201526064016104e1565b6000815160085461083491906111d6565b905060005b825181101561089c5781600080858481518110610858576108586112bc565b60200260200101516001600160a01b03166001600160a01b03168152602001908152602001600020600082825461088f91906111f8565b9091555050600101610839565b50506009805460ff1916600117905550565b6007546001600160a01b031633146108d85760405162461bcd60e51b81526004016104e190611245565b60035463ffffffff1643116109225760405162461bcd60e51b815260206004820152601060248201526f131a5c5d5a591a5d1e481b1bd8dad95960821b60448201526064016104e1565b6007805460ff60a01b1916905560405133904780156108fc02916000818181858888f1935050505015801561095b573d6000803e3d6000fd5b506040514781527f9a5a8a32afd899e7f95003c6e21c9fab2d50e11992439d14472229180c60c7aa9060200160405180910390a1565b6006546001600160a01b031633146109bb5760405162461bcd60e51b81526004016104e190611287565b600680546001600160a01b0319169055565b6060600580546105ed9061120b565b6006546001600160a01b03163314610a065760405162461bcd60e51b81526004016104e190611287565b600754600160a81b900460ff1615610a605760405162461bcd60e51b815260206004820152601760248201527f4c697175696469747920616c726561647920616464656400000000000000000060448201526064016104e1565b6007805460ff60a81b1916600160a81b17905534610aae5760405162461bcd60e51b815260206004820152600b60248201526a139bc8115512081cd95b9d60aa1b60448201526064016104e1565b8063ffffffff164310610afa5760405162461bcd60e51b8152602060048201526014602482015273426c6f636b206e756d62657220746f6f206c6f7760601b60448201526064016104e1565b6003805463ffffffff831663ffffffff199091168117909155600780546001600160a81b0319163317600160a01b179055604080519182523460208301527f0c6c8102f3ac634c5fb327ba1a5d5c18030294d9f5cc309afa9e8a9020a77175910160405180910390a150565b6000306001600160a01b03841603610b8657610b8182610de5565b610b91565b610b91338484610c2a565b50600192915050565b6006546001600160a01b03163314610bc45760405162461bcd60e51b81526004016104e190611287565b60078054911515600160b01b0260ff60b01b19909216919091179055565b6006546001600160a01b03163314610c0c5760405162461bcd60e51b81526004016104e190611287565b60078054911515600160a01b0260ff60a01b19909216919091179055565b336000908152600a60205260409020544363ffffffff90911603610caa5760405162461bcd60e51b815260206004820152603160248201527f596f752063616e2774206d616b652074776f207472616e73616374696f6e7320604482015270696e207468652073616d6520626c6f636b60781b60648201526084016104e1565b336000908152600a60209081526040808320805463ffffffff19164363ffffffff161790556001600160a01b038616835290829052902054811115610d405760405162461bcd60e51b815260206004820152602660248201527f45524332303a207472616e7366657220616d6f756e7420657863656564732062604482015265616c616e636560d01b60648201526084016104e1565b6001600160a01b038084166000908152602081905260409020805483900390558216610d7457600180548290039055610d93565b6001600160a01b03821660009081526020819052604090208054820190555b816001600160a01b0316836001600160a01b03167fddf252ad1be2c89b69c2b068fc378daa952ba7f163c4a11628f55a4df523b3ef83604051610dd891815260200190565b60405180910390a3505050565b600754600160a01b900460ff16610e335760405162461bcd60e51b815260206004820152601260248201527154726164696e67206e6f7420656e61626c6560701b60448201526064016104e1565b30600090815260208190526040812054610e4e9083906111f8565b610e5847846111bf565b610e6291906111d6565b905060008111610eaa5760405162461bcd60e51b815260206004820152601360248201527253656c6c20616d6f756e7420746f6f206c6f7760681b60448201526064016104e1565b80471015610efa5760405162461bcd60e51b815260206004820152601c60248201527f496e73756666696369656e742045544820696e2072657365727665730000000060448201526064016104e1565b610f05333084610c2a565b604051339082156108fc029083906000818181858888f19350505050158015610f32573d6000803e3d6000fd5b50604080516000808252602082018590528183018490526060820152905133917f49926bbebe8474393f434dfa4f78694c0923efa07d19f2284518bfabd06eb737919081900360800190a25050565b60006020808352835180602085015260005b81811015610faf57858101830151858201604001528201610f93565b506000604082860101526040601f19601f8301168501019250505092915050565b80358015158114610fe057600080fd5b919050565b60008060408385031215610ff857600080fd5b8235915061100860208401610fd0565b90509250929050565b60006020828403121561102357600080fd5b813563ffffffff8116811461103757600080fd5b9392505050565b60006020828403121561105057600080fd5b5035919050565b634e487b7160e01b600052604160045260246000fd5b80356001600160a01b0381168114610fe057600080fd5b6000602080838503121561109757600080fd5b823567ffffffffffffffff808211156110af57600080fd5b818501915085601f8301126110c357600080fd5b8135818111156110d5576110d5611057565b8060051b604051601f19603f830116810181811085821117156110fa576110fa611057565b60405291825284820192508381018501918883111561111857600080fd5b938501935b8285101561113d5761112e8561106d565b8452938501939285019261111d565b98975050505050505050565b60006020828403121561115b57600080fd5b6110378261106d565b6000806040838503121561117757600080fd5b6111808361106d565b946020939093013593505050565b6000602082840312156111a057600080fd5b61103782610fd0565b634e487b7160e01b600052601160045260246000fd5b80820281158282048414176106d1576106d16111a9565b6000826111f357634e487b7160e01b600052601260045260246000fd5b500490565b808201808211156106d1576106d16111a9565b600181811c9082168061121f57607f821691505b60208210810361123f57634e487b7160e01b600052602260045260246000fd5b50919050565b60208082526022908201527f596f7520617265206e6f7420746865206c69717569646974792070726f76696460408201526132b960f11b606082015260800190565b6020808252818101527f4f776e61626c653a2063616c6c6572206973206e6f7420746865206f776e6572604082015260600190565b634e487b7160e01b600052603260045260246000fdfea2646970667358221220845d8ec4a8170cb3af2dfc492ee461d2c2b4b9d71d7641337e16b26b6b22ed7264736f6c63430008180033",
          "opcodes": "PUSH1 0x80 PUSH1 0x40 MSTORE PUSH1 0x9 DUP1 SLOAD PUSH1 0xFF NOT AND SWAP1 SSTORE PUSH10 0xD3C21BCECCEDA1000000 PUSH1 0xB SSTORE CALLVALUE DUP1 ISZERO PUSH3 0x29 JUMPI PUSH1 0x0 DUP1 REVERT JUMPDEST POP PUSH1 0x40 MLOAD DUP1 PUSH1 0x40 ADD PUSH1 0x40 MSTORE DUP1 PUSH1 0xC DUP2 MSTORE PUSH1 0x20 ADD PUSH12 0x14DA5B5C1B1A599E480CCC4D PUSH1 0xA2 SHL DUP2 MSTORE POP PUSH1 0x40 MLOAD DUP1 PUSH1 0x40 ADD PUSH1 0x40 MSTORE DUP1 PUSH1 0x4 DUP2 MSTORE PUSH1 0x20 ADD PUSH4 0x53494D5 PUSH1 0xE4 SHL DUP2 MSTORE POP PUSH1 0xB SLOAD DUP3 PUSH1 0x4 SWAP1 DUP2 PUSH3 0x80 SWAP2 SWAP1 PUSH3 0x204 JUMP JUMPDEST POP PUSH1 0x5 PUSH3 0x8F DUP4 DUP3 PUSH3 0x204 JUMP JUMPDEST POP PUSH1 0x1 DUP2 SWAP1 SSTORE PUSH3 0xA2 PUSH1 0xC8 DUP3 PUSH3 0x2D0 JUMP JUMPDEST PUSH1 0x2 SSTORE PUSH1 0x6 DUP1 SLOAD PUSH1 0x1 PUSH1 0x1 PUSH1 0xA0 SHL SUB NOT AND CALLER OR SWAP1 SSTORE PUSH1 0x7 DUP1 SLOAD PUSH3 0xFF00FF PUSH1 0xA0 SHL NOT AND PUSH1 0x1 PUSH1 0xB0 SHL OR SWAP1 SSTORE PUSH3 0xD9 PUSH1 0xA DUP3 PUSH3 0x2D0 JUMP JUMPDEST CALLER PUSH1 0x0 SWAP1 DUP2 MSTORE PUSH1 0x20 DUP2 SWAP1 MSTORE PUSH1 0x40 SWAP1 KECCAK256 DUP2 SWAP1 SSTORE PUSH1 0x2 SWAP1 PUSH3 0xFA SWAP1 DUP4 PUSH3 0x2F3 JUMP JUMPDEST PUSH3 0x106 SWAP2 SWAP1 PUSH3 0x2D0 JUMP JUMPDEST PUSH1 0x8 DUP2 SWAP1 SSTORE CALLER PUSH1 0x0 SWAP1 DUP2 MSTORE PUSH1 0x20 DUP2 SWAP1 MSTORE PUSH1 0x40 DUP2 KECCAK256 SLOAD SWAP1 SWAP2 PUSH3 0x129 SWAP1 DUP5 PUSH3 0x2F3 JUMP JUMPDEST PUSH3 0x135 SWAP2 SWAP1 PUSH3 0x2F3 JUMP JUMPDEST ADDRESS PUSH1 0x0 SWAP1 DUP2 MSTORE PUSH1 0x20 DUP2 SWAP1 MSTORE PUSH1 0x40 SWAP1 KECCAK256 SSTORE POP POP PUSH1 0x7 DUP1 SLOAD PUSH1 0xFF PUSH1 0xA8 SHL NOT AND SWAP1 SSTORE POP PUSH3 0x31B SWAP1 POP JUMP JUMPDEST PUSH4 0x4E487B71 PUSH1 0xE0 SHL PUSH1 0x0 MSTORE PUSH1 0x41 PUSH1 0x4 MSTORE PUSH1 0x24 PUSH1 0x0 REVERT JUMPDEST PUSH1 0x1 DUP2 DUP2 SHR SWAP1 DUP3 AND DUP1 PUSH3 0x188 JUMPI PUSH1 0x7F DUP3 AND SWAP2 POP JUMPDEST PUSH1 0x20 DUP3 LT DUP2 SUB PUSH3 0x1A9 JUMPI PUSH4 0x4E487B71 PUSH1 0xE0 SHL PUSH1 0x0 MSTORE PUSH1 0x22 PUSH1 0x4 MSTORE PUSH1 0x24 PUSH1 0x0 REVERT JUMPDEST POP SWAP2 SWAP1 POP JUMP JUMPDEST PUSH1 0x1F DUP3 GT ISZERO PUSH3 0x1FF JUMPI PUSH1 0x0 DUP2 PUSH1 0x0 MSTORE PUSH1 0x20 PUSH1 0x0 KECCAK256 PUSH1 0x1F DUP6 ADD PUSH1 0x5 SHR DUP2 ADD PUSH1 0x20 DUP7 LT ISZERO PUSH3 0x1DA JUMPI POP DUP1 JUMPDEST PUSH1 0x1F DUP6 ADD PUSH1 0x5 SHR DUP3 ADD SWAP2 POP JUMPDEST DUP2 DUP2 LT ISZERO PUSH3 0x1FB JUMPI DUP3 DUP2 SSTORE PUSH1 0x1 ADD PUSH3 0x1E6 JUMP JUMPDEST POP POP POP JUMPDEST POP POP POP JUMP JUMPDEST DUP2 MLOAD PUSH1 0x1 PUSH1 0x1 PUSH1 0x40 SHL SUB DUP2 GT ISZERO PUSH3 0x220 JUMPI PUSH3 0x220 PUSH3 0x15D JUMP JUMPDEST PUSH3 0x238 DUP2 PUSH3 0x231 DUP5 SLOAD PUSH3 0x173 JUMP JUMPDEST DUP5 PUSH3 0x1AF JUMP JUMPDEST PUSH1 0x20 DUP1 PUSH1 0x1F DUP4 GT PUSH1 0x1 DUP2 EQ PUSH3 0x270 JUMPI PUSH1 0x0 DUP5 ISZERO PUSH3 0x257 JUMPI POP DUP6 DUP4 ADD MLOAD JUMPDEST PUSH1 0x0 NOT PUSH1 0x3 DUP7 SWAP1 SHL SHR NOT AND PUSH1 0x1 DUP6 SWAP1 SHL OR DUP6 SSTORE PUSH3 0x1FB JUMP JUMPDEST PUSH1 0x0 DUP6 DUP2 MSTORE PUSH1 0x20 DUP2 KECCAK256 PUSH1 0x1F NOT DUP7 AND SWAP2 JUMPDEST DUP3 DUP2 LT ISZERO PUSH3 0x2A1 JUMPI DUP9 DUP7 ADD MLOAD DUP3 SSTORE SWAP5 DUP5 ADD SWAP5 PUSH1 0x1 SWAP1 SWAP2 ADD SWAP1 DUP5 ADD PUSH3 0x280 JUMP JUMPDEST POP DUP6 DUP3 LT ISZERO PUSH3 0x2C0 JUMPI DUP8 DUP6 ADD MLOAD PUSH1 0x0 NOT PUSH1 0x3 DUP9 SWAP1 SHL PUSH1 0xF8 AND SHR NOT AND DUP2 SSTORE JUMPDEST POP POP POP POP POP PUSH1 0x1 SWAP1 DUP2 SHL ADD SWAP1 SSTORE POP JUMP JUMPDEST PUSH1 0x0 DUP3 PUSH3 0x2EE JUMPI PUSH4 0x4E487B71 PUSH1 0xE0 SHL PUSH1 0x0 MSTORE PUSH1 0x12 PUSH1 0x4 MSTORE PUSH1 0x24 PUSH1 0x0 REVERT JUMPDEST POP DIV SWAP1 JUMP JUMPDEST DUP2 DUP2 SUB DUP2 DUP2 GT ISZERO PUSH3 0x315 JUMPI PUSH4 0x4E487B71 PUSH1 0xE0 SHL PUSH1 0x0 MSTORE PUSH1 0x11 PUSH1 0x4 MSTORE PUSH1 0x24 PUSH1 0x0 REVERT JUMPDEST SWAP3 SWAP2 POP POP JUMP JUMPDEST PUSH2 0x1308 DUP1 PUSH3 0x32B PUSH1 0x0 CODECOPY PUSH1 0x0 RETURN INVALID PUSH1 0x80 PUSH1 0x40 MSTORE PUSH1 0x4 CALLDATASIZE LT PUSH2 0x14F JUMPI PUSH1 0x0 CALLDATALOAD PUSH1 0xE0 SHR DUP1 PUSH4 0x67B9A286 GT PUSH2 0xB6 JUMPI DUP1 PUSH4 0x95D89B41 GT PUSH2 0x6F JUMPI DUP1 PUSH4 0x95D89B41 EQ PUSH2 0x3EE JUMPI DUP1 PUSH4 0x9A540ABF EQ PUSH2 0x403 JUMPI DUP1 PUSH4 0xA9059CBB EQ PUSH2 0x416 JUMPI DUP1 PUSH4 0xAE19139E EQ PUSH2 0x436 JUMPI DUP1 PUSH4 0xD9443923 EQ PUSH2 0x456 JUMPI DUP1 PUSH4 0xF275F64B EQ PUSH2 0x477 JUMPI PUSH1 0x0 DUP1 REVERT JUMPDEST DUP1 PUSH4 0x67B9A286 EQ PUSH2 0x33E JUMPI DUP1 PUSH4 0x70A08231 EQ PUSH2 0x353 JUMPI DUP1 PUSH4 0x715018A6 EQ PUSH2 0x389 JUMPI DUP1 PUSH4 0x7EC18CF6 EQ PUSH2 0x39E JUMPI DUP1 PUSH4 0x82247EC0 EQ PUSH2 0x3B8 JUMPI DUP1 PUSH4 0x8DA5CB5B EQ PUSH2 0x3CE JUMPI PUSH1 0x0 DUP1 REVERT JUMPDEST DUP1 PUSH4 0x18160DDD GT PUSH2 0x108 JUMPI DUP1 PUSH4 0x18160DDD EQ PUSH2 0x275 JUMPI DUP1 PUSH4 0x27DE2E85 EQ PUSH2 0x28A JUMPI DUP1 PUSH4 0x313CE567 EQ PUSH2 0x2AA JUMPI DUP1 PUSH4 0x5B8BEC55 EQ PUSH2 0x2C6 JUMPI DUP1 PUSH4 0x5D0044CA EQ PUSH2 0x2FE JUMPI DUP1 PUSH4 0x65029D82 EQ PUSH2 0x31E JUMPI PUSH1 0x0 DUP1 REVERT JUMPDEST DUP1 PUSH4 0x4C0C476 EQ PUSH2 0x163 JUMPI DUP1 PUSH4 0x6FDDE03 EQ PUSH2 0x19A JUMPI DUP1 PUSH4 0x902F1AC EQ PUSH2 0x1BC JUMPI DUP1 PUSH4 0x11106EE2 EQ PUSH2 0x1F5 JUMPI DUP1 PUSH4 0x12A54B62 EQ PUSH2 0x223 JUMPI DUP1 PUSH4 0x1693E8D4 EQ PUSH2 0x254 JUMPI PUSH1 0x0 DUP1 REVERT JUMPDEST CALLDATASIZE PUSH2 0x15E JUMPI PUSH2 0x15C PUSH2 0x497 JUMP JUMPDEST STOP JUMPDEST PUSH1 0x0 DUP1 REVERT JUMPDEST CALLVALUE DUP1 ISZERO PUSH2 0x16F JUMPI PUSH1 0x0 DUP1 REVERT JUMPDEST POP PUSH1 0x3 SLOAD PUSH2 0x180 SWAP1 PUSH4 0xFFFFFFFF AND DUP2 JUMP JUMPDEST PUSH1 0x40 MLOAD PUSH4 0xFFFFFFFF SWAP1 SWAP2 AND DUP2 MSTORE PUSH1 0x20 ADD JUMPDEST PUSH1 0x40 MLOAD DUP1 SWAP2 SUB SWAP1 RETURN JUMPDEST CALLVALUE DUP1 ISZERO PUSH2 0x1A6 JUMPI PUSH1 0x0 DUP1 REVERT JUMPDEST POP PUSH2 0x1AF PUSH2 0x5DE JUMP JUMPDEST PUSH1 0x40 MLOAD PUSH2 0x191 SWAP2 SWAP1 PUSH2 0xF81 JUMP JUMPDEST CALLVALUE DUP1 ISZERO PUSH2 0x1C8 JUMPI PUSH1 0x0 DUP1 REVERT JUMPDEST POP PUSH2 0x1E0 ADDRESS PUSH1 0x0 SWAP1 DUP2 MSTORE PUSH1 0x20 DUP2 SWAP1 MSTORE PUSH1 0x40 SWAP1 KECCAK256 SLOAD SELFBALANCE SWAP2 JUMP JUMPDEST PUSH1 0x40 DUP1 MLOAD SWAP3 DUP4 MSTORE PUSH1 0x20 DUP4 ADD SWAP2 SWAP1 SWAP2 MSTORE ADD PUSH2 0x191 JUMP JUMPDEST CALLVALUE DUP1 ISZERO PUSH2 0x201 JUMPI PUSH1 0x0 DUP1 REVERT JUMPDEST POP PUSH2 0x215 PUSH2 0x210 CALLDATASIZE PUSH1 0x4 PUSH2 0xFE5 JUMP JUMPDEST PUSH2 0x670 JUMP JUMPDEST PUSH1 0x40 MLOAD SWAP1 DUP2 MSTORE PUSH1 0x20 ADD PUSH2 0x191 JUMP JUMPDEST CALLVALUE DUP1 ISZERO PUSH2 0x22F JUMPI PUSH1 0x0 DUP1 REVERT JUMPDEST POP PUSH1 0x7 SLOAD PUSH2 0x244 SWAP1 PUSH1 0x1 PUSH1 0xB0 SHL SWAP1 DIV PUSH1 0xFF AND DUP2 JUMP JUMPDEST PUSH1 0x40 MLOAD SWAP1 ISZERO ISZERO DUP2 MSTORE PUSH1 0x20 ADD PUSH2 0x191 JUMP JUMPDEST CALLVALUE DUP1 ISZERO PUSH2 0x260 JUMPI PUSH1 0x0 DUP1 REVERT JUMPDEST POP PUSH1 0x7 SLOAD PUSH2 0x244 SWAP1 PUSH1 0x1 PUSH1 0xA0 SHL SWAP1 DIV PUSH1 0xFF AND DUP2 JUMP JUMPDEST CALLVALUE DUP1 ISZERO PUSH2 0x281 JUMPI PUSH1 0x0 DUP1 REVERT JUMPDEST POP PUSH1 0x1 SLOAD PUSH2 0x215 JUMP JUMPDEST CALLVALUE DUP1 ISZERO PUSH2 0x296 JUMPI PUSH1 0x0 DUP1 REVERT JUMPDEST POP PUSH2 0x15C PUSH2 0x2A5 CALLDATASIZE PUSH1 0x4 PUSH2 0x1011 JUMP JUMPDEST PUSH2 0x6D7 JUMP JUMPDEST CALLVALUE DUP1 ISZERO PUSH2 0x2B6 JUMPI PUSH1 0x0 DUP1 REVERT JUMPDEST POP PUSH1 0x40 MLOAD PUSH1 0x12 DUP2 MSTORE PUSH1 0x20 ADD PUSH2 0x191 JUMP JUMPDEST CALLVALUE DUP1 ISZERO PUSH2 0x2D2 JUMPI PUSH1 0x0 DUP1 REVERT JUMPDEST POP PUSH1 0x7 SLOAD PUSH2 0x2E6 SWAP1 PUSH1 0x1 PUSH1 0x1 PUSH1 0xA0 SHL SUB AND DUP2 JUMP JUMPDEST PUSH1 0x40 MLOAD PUSH1 0x1 PUSH1 0x1 PUSH1 0xA0 SHL SUB SWAP1 SWAP2 AND DUP2 MSTORE PUSH1 0x20 ADD PUSH2 0x191 JUMP JUMPDEST CALLVALUE DUP1 ISZERO PUSH2 0x30A JUMPI PUSH1 0x0 DUP1 REVERT JUMPDEST POP PUSH2 0x15C PUSH2 0x319 CALLDATASIZE PUSH1 0x4 PUSH2 0x103E JUMP JUMPDEST PUSH2 0x777 JUMP JUMPDEST CALLVALUE DUP1 ISZERO PUSH2 0x32A JUMPI PUSH1 0x0 DUP1 REVERT JUMPDEST POP PUSH2 0x15C PUSH2 0x339 CALLDATASIZE PUSH1 0x4 PUSH2 0x1084 JUMP JUMPDEST PUSH2 0x7A6 JUMP JUMPDEST CALLVALUE DUP1 ISZERO PUSH2 0x34A JUMPI PUSH1 0x0 DUP1 REVERT JUMPDEST POP PUSH2 0x15C PUSH2 0x8AE JUMP JUMPDEST CALLVALUE DUP1 ISZERO PUSH2 0x35F JUMPI PUSH1 0x0 DUP1 REVERT JUMPDEST POP PUSH2 0x215 PUSH2 0x36E CALLDATASIZE PUSH1 0x4 PUSH2 0x1149 JUMP JUMPDEST PUSH1 0x1 PUSH1 0x1 PUSH1 0xA0 SHL SUB AND PUSH1 0x0 SWAP1 DUP2 MSTORE PUSH1 0x20 DUP2 SWAP1 MSTORE PUSH1 0x40 SWAP1 KECCAK256 SLOAD SWAP1 JUMP JUMPDEST CALLVALUE DUP1 ISZERO PUSH2 0x395 JUMPI PUSH1 0x0 DUP1 REVERT JUMPDEST POP PUSH2 0x15C PUSH2 0x991 JUMP JUMPDEST CALLVALUE DUP1 ISZERO PUSH2 0x3AA JUMPI PUSH1 0x0 DUP1 REVERT JUMPDEST POP PUSH1 0x9 SLOAD PUSH2 0x244 SWAP1 PUSH1 0xFF AND DUP2 JUMP JUMPDEST CALLVALUE DUP1 ISZERO PUSH2 0x3C4 JUMPI PUSH1 0x0 DUP1 REVERT JUMPDEST POP PUSH2 0x215 PUSH1 0x2 SLOAD DUP2 JUMP JUMPDEST CALLVALUE DUP1 ISZERO PUSH2 0x3DA JUMPI PUSH1 0x0 DUP1 REVERT JUMPDEST POP PUSH1 0x6 SLOAD PUSH2 0x2E6 SWAP1 PUSH1 0x1 PUSH1 0x1 PUSH1 0xA0 SHL SUB AND DUP2 JUMP JUMPDEST CALLVALUE DUP1 ISZERO PUSH2 0x3FA JUMPI PUSH1 0x0 DUP1 REVERT JUMPDEST POP PUSH2 0x1AF PUSH2 0x9CD JUMP JUMPDEST PUSH2 0x15C PUSH2 0x411 CALLDATASIZE PUSH1 0x4 PUSH2 0x1011 JUMP JUMPDEST PUSH2 0x9DC JUMP JUMPDEST CALLVALUE DUP1 ISZERO PUSH2 0x422 JUMPI PUSH1 0x0 DUP1 REVERT JUMPDEST POP PUSH2 0x244 PUSH2 0x431 CALLDATASIZE PUSH1 0x4 PUSH2 0x1164 JUMP JUMPDEST PUSH2 0xB66 JUMP JUMPDEST CALLVALUE DUP1 ISZERO PUSH2 0x442 JUMPI PUSH1 0x0 DUP1 REVERT JUMPDEST POP PUSH2 0x15C PUSH2 0x451 CALLDATASIZE PUSH1 0x4 PUSH2 0x118E JUMP JUMPDEST PUSH2 0xB9A JUMP JUMPDEST CALLVALUE DUP1 ISZERO PUSH2 0x462 JUMPI PUSH1 0x0 DUP1 REVERT JUMPDEST POP PUSH1 0x7 SLOAD PUSH2 0x244 SWAP1 PUSH1 0x1 PUSH1 0xA8 SHL SWAP1 DIV PUSH1 0xFF AND DUP2 JUMP JUMPDEST CALLVALUE DUP1 ISZERO PUSH2 0x483 JUMPI PUSH1 0x0 DUP1 REVERT JUMPDEST POP PUSH2 0x15C PUSH2 0x492 CALLDATASIZE PUSH1 0x4 PUSH2 0x118E JUMP JUMPDEST PUSH2 0xBE2 JUMP JUMPDEST PUSH1 0x7 SLOAD PUSH1 0x1 PUSH1 0xA0 SHL SWAP1 DIV PUSH1 0xFF AND PUSH2 0x4EA JUMPI PUSH1 0x40 MLOAD PUSH3 0x461BCD PUSH1 0xE5 SHL DUP2 MSTORE PUSH1 0x20 PUSH1 0x4 DUP3 ADD MSTORE PUSH1 0x12 PUSH1 0x24 DUP3 ADD MSTORE PUSH18 0x54726164696E67206E6F7420656E61626C65 PUSH1 0x70 SHL PUSH1 0x44 DUP3 ADD MSTORE PUSH1 0x64 ADD JUMPDEST PUSH1 0x40 MLOAD DUP1 SWAP2 SUB SWAP1 REVERT JUMPDEST ADDRESS PUSH1 0x0 SWAP1 DUP2 MSTORE PUSH1 0x20 DUP2 SWAP1 MSTORE PUSH1 0x40 DUP2 KECCAK256 SLOAD SELFBALANCE SWAP1 PUSH2 0x506 SWAP1 CALLVALUE PUSH2 0x11BF JUMP JUMPDEST PUSH2 0x510 SWAP2 SWAP1 PUSH2 0x11D6 JUMP JUMPDEST PUSH1 0x7 SLOAD SWAP1 SWAP2 POP PUSH1 0x1 PUSH1 0xB0 SHL SWAP1 DIV PUSH1 0xFF AND ISZERO PUSH2 0x586 JUMPI PUSH1 0x2 SLOAD CALLER PUSH1 0x0 SWAP1 DUP2 MSTORE PUSH1 0x20 DUP2 SWAP1 MSTORE PUSH1 0x40 SWAP1 KECCAK256 SLOAD PUSH2 0x542 SWAP1 DUP4 PUSH2 0x11F8 JUMP JUMPDEST GT ISZERO PUSH2 0x586 JUMPI PUSH1 0x40 MLOAD PUSH3 0x461BCD PUSH1 0xE5 SHL DUP2 MSTORE PUSH1 0x20 PUSH1 0x4 DUP3 ADD MSTORE PUSH1 0x13 PUSH1 0x24 DUP3 ADD MSTORE PUSH19 0x13585E081DD85B1B195D08195E18D959591959 PUSH1 0x6A SHL PUSH1 0x44 DUP3 ADD MSTORE PUSH1 0x64 ADD PUSH2 0x4E1 JUMP JUMPDEST PUSH2 0x591 ADDRESS CALLER DUP4 PUSH2 0xC2A JUMP JUMPDEST PUSH1 0x40 DUP1 MLOAD CALLVALUE DUP2 MSTORE PUSH1 0x0 PUSH1 0x20 DUP3 ADD DUP2 SWAP1 MSTORE DUP2 DUP4 ADD MSTORE PUSH1 0x60 DUP2 ADD DUP4 SWAP1 MSTORE SWAP1 MLOAD CALLER SWAP2 PUSH32 0x49926BBEBE8474393F434DFA4F78694C0923EFA07D19F2284518BFABD06EB737 SWAP2 SWAP1 DUP2 SWAP1 SUB PUSH1 0x80 ADD SWAP1 LOG2 POP JUMP JUMPDEST PUSH1 0x60 PUSH1 0x4 DUP1 SLOAD PUSH2 0x5ED SWAP1 PUSH2 0x120B JUMP JUMPDEST DUP1 PUSH1 0x1F ADD PUSH1 0x20 DUP1 SWAP2 DIV MUL PUSH1 0x20 ADD PUSH1 0x40 MLOAD SWAP1 DUP2 ADD PUSH1 0x40 MSTORE DUP1 SWAP3 SWAP2 SWAP1 DUP2 DUP2 MSTORE PUSH1 0x20 ADD DUP3 DUP1 SLOAD PUSH2 0x619 SWAP1 PUSH2 0x120B JUMP JUMPDEST DUP1 ISZERO PUSH2 0x666 JUMPI DUP1 PUSH1 0x1F LT PUSH2 0x63B JUMPI PUSH2 0x100 DUP1 DUP4 SLOAD DIV MUL DUP4 MSTORE SWAP2 PUSH1 0x20 ADD SWAP2 PUSH2 0x666 JUMP JUMPDEST DUP3 ADD SWAP2 SWAP1 PUSH1 0x0 MSTORE PUSH1 0x20 PUSH1 0x0 KECCAK256 SWAP1 JUMPDEST DUP2 SLOAD DUP2 MSTORE SWAP1 PUSH1 0x1 ADD SWAP1 PUSH1 0x20 ADD DUP1 DUP4 GT PUSH2 0x649 JUMPI DUP3 SWAP1 SUB PUSH1 0x1F AND DUP3 ADD SWAP2 JUMPDEST POP POP POP POP POP SWAP1 POP SWAP1 JUMP JUMPDEST PUSH1 0x0 DUP1 PUSH1 0x0 PUSH2 0x68C ADDRESS PUSH1 0x0 SWAP1 DUP2 MSTORE PUSH1 0x20 DUP2 SWAP1 MSTORE PUSH1 0x40 SWAP1 KECCAK256 SLOAD SELFBALANCE SWAP2 JUMP JUMPDEST SWAP2 POP SWAP2 POP DUP4 ISZERO PUSH2 0x6BD JUMPI PUSH2 0x6A0 DUP6 DUP4 PUSH2 0x11F8 JUMP JUMPDEST PUSH2 0x6AA DUP3 DUP8 PUSH2 0x11BF JUMP JUMPDEST PUSH2 0x6B4 SWAP2 SWAP1 PUSH2 0x11D6 JUMP JUMPDEST SWAP3 POP POP POP PUSH2 0x6D1 JUMP JUMPDEST PUSH2 0x6C7 DUP6 DUP3 PUSH2 0x11F8 JUMP JUMPDEST PUSH2 0x6AA DUP4 DUP8 PUSH2 0x11BF JUMP JUMPDEST SWAP3 SWAP2 POP POP JUMP JUMPDEST PUSH1 0x7 SLOAD PUSH1 0x1 PUSH1 0x1 PUSH1 0xA0 SHL SUB AND CALLER EQ PUSH2 0x701 JUMPI PUSH1 0x40 MLOAD PUSH3 0x461BCD PUSH1 0xE5 SHL DUP2 MSTORE PUSH1 0x4 ADD PUSH2 0x4E1 SWAP1 PUSH2 0x1245 JUMP JUMPDEST PUSH1 0x3 SLOAD PUSH4 0xFFFFFFFF DUP1 DUP4 AND SWAP2 AND LT PUSH2 0x75B JUMPI PUSH1 0x40 MLOAD PUSH3 0x461BCD PUSH1 0xE5 SHL DUP2 MSTORE PUSH1 0x20 PUSH1 0x4 DUP3 ADD MSTORE PUSH1 0x1A PUSH1 0x24 DUP3 ADD MSTORE PUSH32 0x596F752063616E27742073686F7274656E206475726174696F6E000000000000 PUSH1 0x44 DUP3 ADD MSTORE PUSH1 0x64 ADD PUSH2 0x4E1 JUMP JUMPDEST PUSH1 0x3 DUP1 SLOAD PUSH4 0xFFFFFFFF NOT AND PUSH4 0xFFFFFFFF SWAP3 SWAP1 SWAP3 AND SWAP2 SWAP1 SWAP2 OR SWAP1 SSTORE JUMP JUMPDEST PUSH1 0x6 SLOAD PUSH1 0x1 PUSH1 0x1 PUSH1 0xA0 SHL SUB AND CALLER EQ PUSH2 0x7A1 JUMPI PUSH1 0x40 MLOAD PUSH3 0x461BCD PUSH1 0xE5 SHL DUP2 MSTORE PUSH1 0x4 ADD PUSH2 0x4E1 SWAP1 PUSH2 0x1287 JUMP JUMPDEST PUSH1 0x2 SSTORE JUMP JUMPDEST PUSH1 0x6 SLOAD PUSH1 0x1 PUSH1 0x1 PUSH1 0xA0 SHL SUB AND CALLER EQ PUSH2 0x7D0 JUMPI PUSH1 0x40 MLOAD PUSH3 0x461BCD PUSH1 0xE5 SHL DUP2 MSTORE PUSH1 0x4 ADD PUSH2 0x4E1 SWAP1 PUSH2 0x1287 JUMP JUMPDEST PUSH1 0x9 SLOAD PUSH1 0xFF AND ISZERO PUSH2 0x823 JUMPI PUSH1 0x40 MLOAD PUSH3 0x461BCD PUSH1 0xE5 SHL DUP2 MSTORE PUSH1 0x20 PUSH1 0x4 DUP3 ADD MSTORE PUSH1 0x17 PUSH1 0x24 DUP3 ADD MSTORE PUSH32 0x50726573616C6520616C726561647920656E61626C6564000000000000000000 PUSH1 0x44 DUP3 ADD MSTORE PUSH1 0x64 ADD PUSH2 0x4E1 JUMP JUMPDEST PUSH1 0x0 DUP2 MLOAD PUSH1 0x8 SLOAD PUSH2 0x834 SWAP2 SWAP1 PUSH2 0x11D6 JUMP JUMPDEST SWAP1 POP PUSH1 0x0 JUMPDEST DUP3 MLOAD DUP2 LT ISZERO PUSH2 0x89C JUMPI DUP2 PUSH1 0x0 DUP1 DUP6 DUP5 DUP2 MLOAD DUP2 LT PUSH2 0x858 JUMPI PUSH2 0x858 PUSH2 0x12BC JUMP JUMPDEST PUSH1 0x20 MUL PUSH1 0x20 ADD ADD MLOAD PUSH1 0x1 PUSH1 0x1 PUSH1 0xA0 SHL SUB AND PUSH1 0x1 PUSH1 0x1 PUSH1 0xA0 SHL SUB AND DUP2 MSTORE PUSH1 0x20 ADD SWAP1 DUP2 MSTORE PUSH1 0x20 ADD PUSH1 0x0 KECCAK256 PUSH1 0x0 DUP3 DUP3 SLOAD PUSH2 0x88F SWAP2 SWAP1 PUSH2 0x11F8 JUMP JUMPDEST SWAP1 SWAP2 SSTORE POP POP PUSH1 0x1 ADD PUSH2 0x839 JUMP JUMPDEST POP POP PUSH1 0x9 DUP1 SLOAD PUSH1 0xFF NOT AND PUSH1 0x1 OR SWAP1 SSTORE POP JUMP JUMPDEST PUSH1 0x7 SLOAD PUSH1 0x1 PUSH1 0x1 PUSH1 0xA0 SHL SUB AND CALLER EQ PUSH2 0x8D8 JUMPI PUSH1 0x40 MLOAD PUSH3 0x461BCD PUSH1 0xE5 SHL DUP2 MSTORE PUSH1 0x4 ADD PUSH2 0x4E1 SWAP1 PUSH2 0x1245 JUMP JUMPDEST PUSH1 0x3 SLOAD PUSH4 0xFFFFFFFF AND NUMBER GT PUSH2 0x922 JUMPI PUSH1 0x40 MLOAD PUSH3 0x461BCD PUSH1 0xE5 SHL DUP2 MSTORE PUSH1 0x20 PUSH1 0x4 DUP3 ADD MSTORE PUSH1 0x10 PUSH1 0x24 DUP3 ADD MSTORE PUSH16 0x131A5C5D5A591A5D1E481B1BD8DAD959 PUSH1 0x82 SHL PUSH1 0x44 DUP3 ADD MSTORE PUSH1 0x64 ADD PUSH2 0x4E1 JUMP JUMPDEST PUSH1 0x7 DUP1 SLOAD PUSH1 0xFF PUSH1 0xA0 SHL NOT AND SWAP1 SSTORE PUSH1 0x40 MLOAD CALLER SWAP1 SELFBALANCE DUP1 ISZERO PUSH2 0x8FC MUL SWAP2 PUSH1 0x0 DUP2 DUP2 DUP2 DUP6 DUP9 DUP9 CALL SWAP4 POP POP POP POP ISZERO DUP1 ISZERO PUSH2 0x95B JUMPI RETURNDATASIZE PUSH1 0x0 DUP1 RETURNDATACOPY RETURNDATASIZE PUSH1 0x0 REVERT JUMPDEST POP PUSH1 0x40 MLOAD SELFBALANCE DUP2 MSTORE PUSH32 0x9A5A8A32AFD899E7F95003C6E21C9FAB2D50E11992439D14472229180C60C7AA SWAP1 PUSH1 0x20 ADD PUSH1 0x40 MLOAD DUP1 SWAP2 SUB SWAP1 LOG1 JUMP JUMPDEST PUSH1 0x6 SLOAD PUSH1 0x1 PUSH1 0x1 PUSH1 0xA0 SHL SUB AND CALLER EQ PUSH2 0x9BB JUMPI PUSH1 0x40 MLOAD PUSH3 0x461BCD PUSH1 0xE5 SHL DUP2 MSTORE PUSH1 0x4 ADD PUSH2 0x4E1 SWAP1 PUSH2 0x1287 JUMP JUMPDEST PUSH1 0x6 DUP1 SLOAD PUSH1 0x1 PUSH1 0x1 PUSH1 0xA0 SHL SUB NOT AND SWAP1 SSTORE JUMP JUMPDEST PUSH1 0x60 PUSH1 0x5 DUP1 SLOAD PUSH2 0x5ED SWAP1 PUSH2 0x120B JUMP JUMPDEST PUSH1 0x6 SLOAD PUSH1 0x1 PUSH1 0x1 PUSH1 0xA0 SHL SUB AND CALLER EQ PUSH2 0xA06 JUMPI PUSH1 0x40 MLOAD PUSH3 0x461BCD PUSH1 0xE5 SHL DUP2 MSTORE PUSH1 0x4 ADD PUSH2 0x4E1 SWAP1 PUSH2 0x1287 JUMP JUMPDEST PUSH1 0x7 SLOAD PUSH1 0x1 PUSH1 0xA8 SHL SWAP1 DIV PUSH1 0xFF AND ISZERO PUSH2 0xA60 JUMPI PUSH1 0x40 MLOAD PUSH3 0x461BCD PUSH1 0xE5 SHL DUP2 MSTORE PUSH1 0x20 PUSH1 0x4 DUP3 ADD MSTORE PUSH1 0x17 PUSH1 0x24 DUP3 ADD MSTORE PUSH32 0x4C697175696469747920616C7265616479206164646564000000000000000000 PUSH1 0x44 DUP3 ADD MSTORE PUSH1 0x64 ADD PUSH2 0x4E1 JUMP JUMPDEST PUSH1 0x7 DUP1 SLOAD PUSH1 0xFF PUSH1 0xA8 SHL NOT AND PUSH1 0x1 PUSH1 0xA8 SHL OR SWAP1 SSTORE CALLVALUE PUSH2 0xAAE JUMPI PUSH1 0x40 MLOAD PUSH3 0x461BCD PUSH1 0xE5 SHL DUP2 MSTORE PUSH1 0x20 PUSH1 0x4 DUP3 ADD MSTORE PUSH1 0xB PUSH1 0x24 DUP3 ADD MSTORE PUSH11 0x139BC8115512081CD95B9D PUSH1 0xAA SHL PUSH1 0x44 DUP3 ADD MSTORE PUSH1 0x64 ADD PUSH2 0x4E1 JUMP JUMPDEST DUP1 PUSH4 0xFFFFFFFF AND NUMBER LT PUSH2 0xAFA JUMPI PUSH1 0x40 MLOAD PUSH3 0x461BCD PUSH1 0xE5 SHL DUP2 MSTORE PUSH1 0x20 PUSH1 0x4 DUP3 ADD MSTORE PUSH1 0x14 PUSH1 0x24 DUP3 ADD MSTORE PUSH20 0x426C6F636B206E756D62657220746F6F206C6F77 PUSH1 0x60 SHL PUSH1 0x44 DUP3 ADD MSTORE PUSH1 0x64 ADD PUSH2 0x4E1 JUMP JUMPDEST PUSH1 0x3 DUP1 SLOAD PUSH4 0xFFFFFFFF DUP4 AND PUSH4 0xFFFFFFFF NOT SWAP1 SWAP2 AND DUP2 OR SWAP1 SWAP2 SSTORE PUSH1 0x7 DUP1 SLOAD PUSH1 0x1 PUSH1 0x1 PUSH1 0xA8 SHL SUB NOT AND CALLER OR PUSH1 0x1 PUSH1 0xA0 SHL OR SWAP1 SSTORE PUSH1 0x40 DUP1 MLOAD SWAP2 DUP3 MSTORE CALLVALUE PUSH1 0x20 DUP4 ADD MSTORE PUSH32 0xC6C8102F3AC634C5FB327BA1A5D5C18030294D9F5CC309AFA9E8A9020A77175 SWAP2 ADD PUSH1 0x40 MLOAD DUP1 SWAP2 SUB SWAP1 LOG1 POP JUMP JUMPDEST PUSH1 0x0 ADDRESS PUSH1 0x1 PUSH1 0x1 PUSH1 0xA0 SHL SUB DUP5 AND SUB PUSH2 0xB86 JUMPI PUSH2 0xB81 DUP3 PUSH2 0xDE5 JUMP JUMPDEST PUSH2 0xB91 JUMP JUMPDEST PUSH2 0xB91 CALLER DUP5 DUP5 PUSH2 0xC2A JUMP JUMPDEST POP PUSH1 0x1 SWAP3 SWAP2 POP POP JUMP JUMPDEST PUSH1 0x6 SLOAD PUSH1 0x1 PUSH1 0x1 PUSH1 0xA0 SHL SUB AND CALLER EQ PUSH2 0xBC4 JUMPI PUSH1 0x40 MLOAD PUSH3 0x461BCD PUSH1 0xE5 SHL DUP2 MSTORE PUSH1 0x4 ADD PUSH2 0x4E1 SWAP1 PUSH2 0x1287 JUMP JUMPDEST PUSH1 0x7 DUP1 SLOAD SWAP2 ISZERO ISZERO PUSH1 0x1 PUSH1 0xB0 SHL MUL PUSH1 0xFF PUSH1 0xB0 SHL NOT SWAP1 SWAP3 AND SWAP2 SWAP1 SWAP2 OR SWAP1 SSTORE JUMP JUMPDEST PUSH1 0x6 SLOAD PUSH1 0x1 PUSH1 0x1 PUSH1 0xA0 SHL SUB AND CALLER EQ PUSH2 0xC0C JUMPI PUSH1 0x40 MLOAD PUSH3 0x461BCD PUSH1 0xE5 SHL DUP2 MSTORE PUSH1 0x4 ADD PUSH2 0x4E1 SWAP1 PUSH2 0x1287 JUMP JUMPDEST PUSH1 0x7 DUP1 SLOAD SWAP2 ISZERO ISZERO PUSH1 0x1 PUSH1 0xA0 SHL MUL PUSH1 0xFF PUSH1 0xA0 SHL NOT SWAP1 SWAP3 AND SWAP2 SWAP1 SWAP2 OR SWAP1 SSTORE JUMP JUMPDEST CALLER PUSH1 0x0 SWAP1 DUP2 MSTORE PUSH1 0xA PUSH1 0x20 MSTORE PUSH1 0x40 SWAP1 KECCAK256 SLOAD NUMBER PUSH4 0xFFFFFFFF SWAP1 SWAP2 AND SUB PUSH2 0xCAA JUMPI PUSH1 0x40 MLOAD PUSH3 0x461BCD PUSH1 0xE5 SHL DUP2 MSTORE PUSH1 0x20 PUSH1 0x4 DUP3 ADD MSTORE PUSH1 0x31 PUSH1 0x24 DUP3 ADD MSTORE PUSH32 0x596F752063616E2774206D616B652074776F207472616E73616374696F6E7320 PUSH1 0x44 DUP3 ADD MSTORE PUSH17 0x696E207468652073616D6520626C6F636B PUSH1 0x78 SHL PUSH1 0x64 DUP3 ADD MSTORE PUSH1 0x84 ADD PUSH2 0x4E1 JUMP JUMPDEST CALLER PUSH1 0x0 SWAP1 DUP2 MSTORE PUSH1 0xA PUSH1 0x20 SWAP1 DUP2 MSTORE PUSH1 0x40 DUP1 DUP4 KECCAK256 DUP1 SLOAD PUSH4 0xFFFFFFFF NOT AND NUMBER PUSH4 0xFFFFFFFF AND OR SWAP1 SSTORE PUSH1 0x1 PUSH1 0x1 PUSH1 0xA0 SHL SUB DUP7 AND DUP4 MSTORE SWAP1 DUP3 SWAP1 MSTORE SWAP1 KECCAK256 SLOAD DUP2 GT ISZERO PUSH2 0xD40 JUMPI PUSH1 0x40 MLOAD PUSH3 0x461BCD PUSH1 0xE5 SHL DUP2 MSTORE PUSH1 0x20 PUSH1 0x4 DUP3 ADD MSTORE PUSH1 0x26 PUSH1 0x24 DUP3 ADD MSTORE PUSH32 0x45524332303A207472616E7366657220616D6F756E7420657863656564732062 PUSH1 0x44 DUP3 ADD MSTORE PUSH6 0x616C616E6365 PUSH1 0xD0 SHL PUSH1 0x64 DUP3 ADD MSTORE PUSH1 0x84 ADD PUSH2 0x4E1 JUMP JUMPDEST PUSH1 0x1 PUSH1 0x1 PUSH1 0xA0 SHL SUB DUP1 DUP5 AND PUSH1 0x0 SWAP1 DUP2 MSTORE PUSH1 0x20 DUP2 SWAP1 MSTORE PUSH1 0x40 SWAP1 KECCAK256 DUP1 SLOAD DUP4 SWAP1 SUB SWAP1 SSTORE DUP3 AND PUSH2 0xD74 JUMPI PUSH1 0x1 DUP1 SLOAD DUP3 SWAP1 SUB SWAP1 SSTORE PUSH2 0xD93 JUMP JUMPDEST PUSH1 0x1 PUSH1 0x1 PUSH1 0xA0 SHL SUB DUP3 AND PUSH1 0x0 SWAP1 DUP2 MSTORE PUSH1 0x20 DUP2 SWAP1 MSTORE PUSH1 0x40 SWAP1 KECCAK256 DUP1 SLOAD DUP3 ADD SWAP1 SSTORE JUMPDEST DUP2 PUSH1 0x1 PUSH1 0x1 PUSH1 0xA0 SHL SUB AND DUP4 PUSH1 0x1 PUSH1 0x1 PUSH1 0xA0 SHL SUB AND PUSH32 0xDDF252AD1BE2C89B69C2B068FC378DAA952BA7F163C4A11628F55A4DF523B3EF DUP4 PUSH1 0x40 MLOAD PUSH2 0xDD8 SWAP2 DUP2 MSTORE PUSH1 0x20 ADD SWAP1 JUMP JUMPDEST PUSH1 0x40 MLOAD DUP1 SWAP2 SUB SWAP1 LOG3 POP POP POP JUMP JUMPDEST PUSH1 0x7 SLOAD PUSH1 0x1 PUSH1 0xA0 SHL SWAP1 DIV PUSH1 0xFF AND PUSH2 0xE33 JUMPI PUSH1 0x40 MLOAD PUSH3 0x461BCD PUSH1 0xE5 SHL DUP2 MSTORE PUSH1 0x20 PUSH1 0x4 DUP3 ADD MSTORE PUSH1 0x12 PUSH1 0x24 DUP3 ADD MSTORE PUSH18 0x54726164696E67206E6F7420656E61626C65 PUSH1 0x70 SHL PUSH1 0x44 DUP3 ADD MSTORE PUSH1 0x64 ADD PUSH2 0x4E1 JUMP JUMPDEST ADDRESS PUSH1 0x0 SWAP1 DUP2 MSTORE PUSH1 0x20 DUP2 SWAP1 MSTORE PUSH1 0x40 DUP2 KECCAK256 SLOAD PUSH2 0xE4E SWAP1 DUP4 SWAP1 PUSH2 0x11F8 JUMP JUMPDEST PUSH2 0xE58 SELFBALANCE DUP5 PUSH2 0x11BF JUMP JUMPDEST PUSH2 0xE62 SWAP2 SWAP1 PUSH2 0x11D6 JUMP JUMPDEST SWAP1 POP PUSH1 0x0 DUP2 GT PUSH2 0xEAA JUMPI PUSH1 0x40 MLOAD PUSH3 0x461BCD PUSH1 0xE5 SHL DUP2 MSTORE PUSH1 0x20 PUSH1 0x4 DUP3 ADD MSTORE PUSH1 0x13 PUSH1 0x24 DUP3 ADD MSTORE PUSH19 0x53656C6C20616D6F756E7420746F6F206C6F77 PUSH1 0x68 SHL PUSH1 0x44 DUP3 ADD MSTORE PUSH1 0x64 ADD PUSH2 0x4E1 JUMP JUMPDEST DUP1 SELFBALANCE LT ISZERO PUSH2 0xEFA JUMPI PUSH1 0x40 MLOAD PUSH3 0x461BCD PUSH1 0xE5 SHL DUP2 MSTORE PUSH1 0x20 PUSH1 0x4 DUP3 ADD MSTORE PUSH1 0x1C PUSH1 0x24 DUP3 ADD MSTORE PUSH32 0x496E73756666696369656E742045544820696E20726573657276657300000000 PUSH1 0x44 DUP3 ADD MSTORE PUSH1 0x64 ADD PUSH2 0x4E1 JUMP JUMPDEST PUSH2 0xF05 CALLER ADDRESS DUP5 PUSH2 0xC2A JUMP JUMPDEST PUSH1 0x40 MLOAD CALLER SWAP1 DUP3 ISZERO PUSH2 0x8FC MUL SWAP1 DUP4 SWAP1 PUSH1 0x0 DUP2 DUP2 DUP2 DUP6 DUP9 DUP9 CALL SWAP4 POP POP POP POP ISZERO DUP1 ISZERO PUSH2 0xF32 JUMPI RETURNDATASIZE PUSH1 0x0 DUP1 RETURNDATACOPY RETURNDATASIZE PUSH1 0x0 REVERT JUMPDEST POP PUSH1 0x40 DUP1 MLOAD PUSH1 0x0 DUP1 DUP3 MSTORE PUSH1 0x20 DUP3 ADD DUP6 SWAP1 MSTORE DUP2 DUP4 ADD DUP5 SWAP1 MSTORE PUSH1 0x60 DUP3 ADD MSTORE SWAP1 MLOAD CALLER SWAP2 PUSH32 0x49926BBEBE8474393F434DFA4F78694C0923EFA07D19F2284518BFABD06EB737 SWAP2 SWAP1 DUP2 SWAP1 SUB PUSH1 0x80 ADD SWAP1 LOG2 POP POP JUMP JUMPDEST PUSH1 0x0 PUSH1 0x20 DUP1 DUP4 MSTORE DUP4 MLOAD DUP1 PUSH1 0x20 DUP6 ADD MSTORE PUSH1 0x0 JUMPDEST DUP2 DUP2 LT ISZERO PUSH2 0xFAF JUMPI DUP6 DUP2 ADD DUP4 ADD MLOAD DUP6 DUP3 ADD PUSH1 0x40 ADD MSTORE DUP3 ADD PUSH2 0xF93 JUMP JUMPDEST POP PUSH1 0x0 PUSH1 0x40 DUP3 DUP7 ADD ADD MSTORE PUSH1 0x40 PUSH1 0x1F NOT PUSH1 0x1F DUP4 ADD AND DUP6 ADD ADD SWAP3 POP POP POP SWAP3 SWAP2 POP POP JUMP JUMPDEST DUP1 CALLDATALOAD DUP1 ISZERO ISZERO DUP2 EQ PUSH2 0xFE0 JUMPI PUSH1 0x0 DUP1 REVERT JUMPDEST SWAP2 SWAP1 POP JUMP JUMPDEST PUSH1 0x0 DUP1 PUSH1 0x40 DUP4 DUP6 SUB SLT ISZERO PUSH2 0xFF8 JUMPI PUSH1 0x0 DUP1 REVERT JUMPDEST DUP3 CALLDATALOAD SWAP2 POP PUSH2 0x1008 PUSH1 0x20 DUP5 ADD PUSH2 0xFD0 JUMP JUMPDEST SWAP1 POP SWAP3 POP SWAP3 SWAP1 POP JUMP JUMPDEST PUSH1 0x0 PUSH1 0x20 DUP3 DUP5 SUB SLT ISZERO PUSH2 0x1023 JUMPI PUSH1 0x0 DUP1 REVERT JUMPDEST DUP2 CALLDATALOAD PUSH4 0xFFFFFFFF DUP2 AND DUP2 EQ PUSH2 0x1037 JUMPI PUSH1 0x0 DUP1 REVERT JUMPDEST SWAP4 SWAP3 POP POP POP JUMP JUMPDEST PUSH1 0x0 PUSH1 0x20 DUP3 DUP5 SUB SLT ISZERO PUSH2 0x1050 JUMPI PUSH1 0x0 DUP1 REVERT JUMPDEST POP CALLDATALOAD SWAP2 SWAP1 POP JUMP JUMPDEST PUSH4 0x4E487B71 PUSH1 0xE0 SHL PUSH1 0x0 MSTORE PUSH1 0x41 PUSH1 0x4 MSTORE PUSH1 0x24 PUSH1 0x0 REVERT JUMPDEST DUP1 CALLDATALOAD PUSH1 0x1 PUSH1 0x1 PUSH1 0xA0 SHL SUB DUP2 AND DUP2 EQ PUSH2 0xFE0 JUMPI PUSH1 0x0 DUP1 REVERT JUMPDEST PUSH1 0x0 PUSH1 0x20 DUP1 DUP4 DUP6 SUB SLT ISZERO PUSH2 0x1097 JUMPI PUSH1 0x0 DUP1 REVERT JUMPDEST DUP3 CALLDATALOAD PUSH8 0xFFFFFFFFFFFFFFFF DUP1 DUP3 GT ISZERO PUSH2 0x10AF JUMPI PUSH1 0x0 DUP1 REVERT JUMPDEST DUP2 DUP6 ADD SWAP2 POP DUP6 PUSH1 0x1F DUP4 ADD SLT PUSH2 0x10C3 JUMPI PUSH1 0x0 DUP1 REVERT JUMPDEST DUP2 CALLDATALOAD DUP2 DUP2 GT ISZERO PUSH2 0x10D5 JUMPI PUSH2 0x10D5 PUSH2 0x1057 JUMP JUMPDEST DUP1 PUSH1 0x5 SHL PUSH1 0x40 MLOAD PUSH1 0x1F NOT PUSH1 0x3F DUP4 ADD AND DUP2 ADD DUP2 DUP2 LT DUP6 DUP3 GT OR ISZERO PUSH2 0x10FA JUMPI PUSH2 0x10FA PUSH2 0x1057 JUMP JUMPDEST PUSH1 0x40 MSTORE SWAP2 DUP3 MSTORE DUP5 DUP3 ADD SWAP3 POP DUP4 DUP2 ADD DUP6 ADD SWAP2 DUP9 DUP4 GT ISZERO PUSH2 0x1118 JUMPI PUSH1 0x0 DUP1 REVERT JUMPDEST SWAP4 DUP6 ADD SWAP4 JUMPDEST DUP3 DUP6 LT ISZERO PUSH2 0x113D JUMPI PUSH2 0x112E DUP6 PUSH2 0x106D JUMP JUMPDEST DUP5 MSTORE SWAP4 DUP6 ADD SWAP4 SWAP3 DUP6 ADD SWAP3 PUSH2 0x111D JUMP JUMPDEST SWAP9 SWAP8 POP POP POP POP POP POP POP POP JUMP JUMPDEST PUSH1 0x0 PUSH1 0x20 DUP3 DUP5 SUB SLT ISZERO PUSH2 0x115B JUMPI PUSH1 0x0 DUP1 REVERT JUMPDEST PUSH2 0x1037 DUP3 PUSH2 0x106D JUMP JUMPDEST PUSH1 0x0 DUP1 PUSH1 0x40 DUP4 DUP6 SUB SLT ISZERO PUSH2 0x1177 JUMPI PUSH1 0x0 DUP1 REVERT JUMPDEST PUSH2 0x1180 DUP4 PUSH2 0x106D JUMP JUMPDEST SWAP5 PUSH1 0x20 SWAP4 SWAP1 SWAP4 ADD CALLDATALOAD SWAP4 POP POP POP JUMP JUMPDEST PUSH1 0x0 PUSH1 0x20 DUP3 DUP5 SUB SLT ISZERO PUSH2 0x11A0 JUMPI PUSH1 0x0 DUP1 REVERT JUMPDEST PUSH2 0x1037 DUP3 PUSH2 0xFD0 JUMP JUMPDEST PUSH4 0x4E487B71 PUSH1 0xE0 SHL PUSH1 0x0 MSTORE PUSH1 0x11 PUSH1 0x4 MSTORE PUSH1 0x24 PUSH1 0x0 REVERT JUMPDEST DUP1 DUP3 MUL DUP2 ISZERO DUP3 DUP3 DIV DUP5 EQ OR PUSH2 0x6D1 JUMPI PUSH2 0x6D1 PUSH2 0x11A9 JUMP JUMPDEST PUSH1 0x0 DUP3 PUSH2 0x11F3 JUMPI PUSH4 0x4E487B71 PUSH1 0xE0 SHL PUSH1 0x0 MSTORE PUSH1 0x12 PUSH1 0x4 MSTORE PUSH1 0x24 PUSH1 0x0 REVERT JUMPDEST POP DIV SWAP1 JUMP JUMPDEST DUP1 DUP3 ADD DUP1 DUP3 GT ISZERO PUSH2 0x6D1 JUMPI PUSH2 0x6D1 PUSH2 0x11A9 JUMP JUMPDEST PUSH1 0x1 DUP2 DUP2 SHR SWAP1 DUP3 AND DUP1 PUSH2 0x121F JUMPI PUSH1 0x7F DUP3 AND SWAP2 POP JUMPDEST PUSH1 0x20 DUP3 LT DUP2 SUB PUSH2 0x123F JUMPI PUSH4 0x4E487B71 PUSH1 0xE0 SHL PUSH1 0x0 MSTORE PUSH1 0x22 PUSH1 0x4 MSTORE PUSH1 0x24 PUSH1 0x0 REVERT JUMPDEST POP SWAP2 SWAP1 POP JUMP JUMPDEST PUSH1 0x20 DUP1 DUP3 MSTORE PUSH1 0x22 SWAP1 DUP3 ADD MSTORE PUSH32 0x596F7520617265206E6F7420746865206C69717569646974792070726F766964 PUSH1 0x40 DUP3 ADD MSTORE PUSH2 0x32B9 PUSH1 0xF1 SHL PUSH1 0x60 DUP3 ADD MSTORE PUSH1 0x80 ADD SWAP1 JUMP JUMPDEST PUSH1 0x20 DUP1 DUP3 MSTORE DUP2 DUP2 ADD MSTORE PUSH32 0x4F776E61626C653A2063616C6C6572206973206E6F7420746865206F776E6572 PUSH1 0x40 DUP3 ADD MSTORE PUSH1 0x60 ADD SWAP1 JUMP JUMPDEST PUSH4 0x4E487B71 PUSH1 0xE0 SHL PUSH1 0x0 MSTORE PUSH1 0x32 PUSH1 0x4 MSTORE PUSH1 0x24 PUSH1 0x0 REVERT INVALID LOG2 PUSH5 0x6970667358 0x22 SLT KECCAK256 DUP5 TSTORE DUP15 0xC4 0xA8 OR 0xC 0xB3 0xAF 0x2D 0xFC BLOBHASH 0x2E 0xE4 PUSH2 0xD2C2 0xB4 0xB9 0xD7 SAR PUSH23 0x41337E16B26B6B22ED7264736F6C634300081800330000 "
        },
        "methodIdentifiers": {
          "_maxWallet()": "82247ec0",
          "addLiquidity(uint32)": "9a540abf",
          "balanceOf(address)": "70a08231",
          "blockToUnlockLiquidity()": "04c0c476",
          "decimals()": "313ce567",
          "enableMaxWallet(bool)": "ae19139e",
          "enableTrading(bool)": "f275f64b",
          "extendLiquidityLock(uint32)": "27de2e85",
          "getAmountOut(uint256,bool)": "11106ee2",
          "getReserves()": "0902f1ac",
          "liquidityAdded()": "d9443923",
          "liquidityProvider()": "5b8bec55",
          "maxWalletEnable()": "12a54b62",
          "name()": "06fdde03",
          "owner()": "8da5cb5b",
          "presale(address[])": "65029d82",
          "presaleEnable()": "7ec18cf6",
          "removeLiquidity()": "67b9a286",
          "renounceOwnership()": "715018a6",
          "setMaxWallet(uint256)": "5d0044ca",
          "symbol()": "95d89b41",
          "totalSupply()": "18160ddd",
          "tradingEnable()": "1693e8d4",
          "transfer(address,uint256)": "a9059cbb"
        }
      }
    }
  }
}