{
  "_format": "hh-sol-artifact-1",
  "contractName": "Simplify_314",
  "sourceName": "contracts/Simplify.sol",
  "abi": [
    {
      "inputs": [],
      "stateMutability": "nonpayable",
      "type": "constructor"
    },
    {
      "anonymous": false,
      "inputs": [
        {
          "indexed": false,
          "internalType": "uint32",
          "name": "_blockToUnlockLiquidity",
          "type": "uint32"
        },
        {
          "indexed": false,
          "internalType": "uint256",
          "name": "value",
          "type": "uint256"
        }
      ],
      "name": "AddLiquidity",
      "type": "event"
    },
    {
      "anonymous": false,
      "inputs": [
        {
          "indexed": false,
          "internalType": "uint256",
          "name": "value",
          "type": "uint256"
        }
      ],
      "name": "RemoveLiquidity",
      "type": "event"
    },
    {
      "anonymous": false,
      "inputs": [
        {
          "indexed": true,
          "internalType": "address",
          "name": "sender",
          "type": "address"
        },
        {
          "indexed": false,
          "internalType": "uint256",
          "name": "amount0In",
          "type": "uint256"
        },
        {
          "indexed": false,
          "internalType": "uint256",
          "name": "amount1In",
          "type": "uint256"
        },
        {
          "indexed": false,
          "internalType": "uint256",
          "name": "amount0Out",
          "type": "uint256"
        },
        {
          "indexed": false,
          "internalType": "uint256",
          "name": "amount1Out",
          "type": "uint256"
        }
      ],
      "name": "Swap",
      "type": "event"
    },
    {
      "anonymous": false,
      "inputs": [
        {
          "indexed": true,
          "internalType": "address",
          "name": "from",
          "type": "address"
        },
        {
          "indexed": true,
          "internalType": "address",
          "name": "to",
          "type": "address"
        },
        {
          "indexed": false,
          "internalType": "uint256",
          "name": "value",
          "type": "uint256"
        }
      ],
      "name": "Transfer",
      "type": "event"
    },
    {
      "inputs": [],
      "name": "_maxWallet",
      "outputs": [
        {
          "internalType": "uint256",
          "name": "",
          "type": "uint256"
        }
      ],
      "stateMutability": "view",
      "type": "function"
    },
    {
      "inputs": [
        {
          "internalType": "uint32",
          "name": "_blockToUnlockLiquidity",
          "type": "uint32"
        }
      ],
      "name": "addLiquidity",
      "outputs": [],
      "stateMutability": "payable",
      "type": "function"
    },
    {
      "inputs": [
        {
          "internalType": "address",
          "name": "account",
          "type": "address"
        }
      ],
      "name": "balanceOf",
      "outputs": [
        {
          "internalType": "uint256",
          "name": "",
          "type": "uint256"
        }
      ],
      "stateMutability": "view",
      "type": "function"
    },
    {
      "inputs": [],
      "name": "blockToUnlockLiquidity",
      "outputs": [
        {
          "internalType": "uint32",
          "name": "",
          "type": "uint32"
        }
      ],
      "stateMutability": "view",
      "type": "function"
    },
    {
      "inputs": [],
      "name": "decimals",
      "outputs": [
        {
          "internalType": "uint8",
          "name": "",
          "type": "uint8"
        }
      ],
      "stateMutability": "view",
      "type": "function"
    },
    {
      "inputs": [
        {
          "internalType": "bool",
          "name": "_maxWalletEnable",
          "type": "bool"
        }
      ],
      "name": "enableMaxWallet",
      "outputs": [],
      "stateMutability": "nonpayable",
      "type": "function"
    },
    {
      "inputs": [
        {
          "internalType": "bool",
          "name": "_tradingEnable",
          "type": "bool"
        }
      ],
      "name": "enableTrading",
      "outputs": [],
      "stateMutability": "nonpayable",
      "type": "function"
    },
    {
      "inputs": [
        {
          "internalType": "uint32",
          "name": "_blockToUnlockLiquidity",
          "type": "uint32"
        }
      ],
      "name": "extendLiquidityLock",
      "outputs": [],
      "stateMutability": "nonpayable",
      "type": "function"
    },
    {
      "inputs": [
        {
          "internalType": "uint256",
          "name": "value",
          "type": "uint256"
        },
        {
          "internalType": "bool",
          "name": "_buy",
          "type": "bool"
        }
      ],
      "name": "getAmountOut",
      "outputs": [
        {
          "internalType": "uint256",
          "name": "",
          "type": "uint256"
        }
      ],
      "stateMutability": "view",
      "type": "function"
    },
    {
      "inputs": [],
      "name": "getReserves",
      "outputs": [
        {
          "internalType": "uint256",
          "name": "",
          "type": "uint256"
        },
        {
          "internalType": "uint256",
          "name": "",
          "type": "uint256"
        }
      ],
      "stateMutability": "view",
      "type": "function"
    },
    {
      "inputs": [],
      "name": "liquidityAdded",
      "outputs": [
        {
          "internalType": "bool",
          "name": "",
          "type": "bool"
        }
      ],
      "stateMutability": "view",
      "type": "function"
    },
    {
      "inputs": [],
      "name": "liquidityProvider",
      "outputs": [
        {
          "internalType": "address",
          "name": "",
          "type": "address"
        }
      ],
      "stateMutability": "view",
      "type": "function"
    },
    {
      "inputs": [],
      "name": "maxWalletEnable",
      "outputs": [
        {
          "internalType": "bool",
          "name": "",
          "type": "bool"
        }
      ],
      "stateMutability": "view",
      "type": "function"
    },
    {
      "inputs": [],
      "name": "name",
      "outputs": [
        {
          "internalType": "string",
          "name": "",
          "type": "string"
        }
      ],
      "stateMutability": "view",
      "type": "function"
    },
    {
      "inputs": [],
      "name": "owner",
      "outputs": [
        {
          "internalType": "address",
          "name": "",
          "type": "address"
        }
      ],
      "stateMutability": "view",
      "type": "function"
    },
    {
      "inputs": [
        {
          "internalType": "address[]",
          "name": "_investors",
          "type": "address[]"
        }
      ],
      "name": "presale",
      "outputs": [],
      "stateMutability": "nonpayable",
      "type": "function"
    },
    {
      "inputs": [],
      "name": "presaleEnable",
      "outputs": [
        {
          "internalType": "bool",
          "name": "",
          "type": "bool"
        }
      ],
      "stateMutability": "view",
      "type": "function"
    },
    {
      "inputs": [],
      "name": "removeLiquidity",
      "outputs": [],
      "stateMutability": "nonpayable",
      "type": "function"
    },
    {
      "inputs": [],
      "name": "renounceOwnership",
      "outputs": [],
      "stateMutability": "nonpayable",
      "type": "function"
    },
    {
      "inputs": [
        {
          "internalType": "uint256",
          "name": "_maxWallet_",
          "type": "uint256"
        }
      ],
      "name": "setMaxWallet",
      "outputs": [],
      "stateMutability": "nonpayable",
      "type": "function"
    },
    {
      "inputs": [],
      "name": "symbol",
      "outputs": [
        {
          "internalType": "string",
          "name": "",
          "type": "string"
        }
      ],
      "stateMutability": "view",
      "type": "function"
    },
    {
      "inputs": [],
      "name": "totalSupply",
      "outputs": [
        {
          "internalType": "uint256",
          "name": "",
          "type": "uint256"
        }
      ],
      "stateMutability": "view",
      "type": "function"
    },
    {
      "inputs": [],
      "name": "tradingEnable",
      "outputs": [
        {
          "internalType": "bool",
          "name": "",
          "type": "bool"
        }
      ],
      "stateMutability": "view",
      "type": "function"
    },
    {
      "inputs": [
        {
          "internalType": "address",
          "name": "to",
          "type": "address"
        },
        {
          "internalType": "uint256",
          "name": "value",
          "type": "uint256"
        }
      ],
      "name": "transfer",
      "outputs": [
        {
          "internalType": "bool",
          "name": "",
          "type": "bool"
        }
      ],
      "stateMutability": "nonpayable",
      "type": "function"
    },
    {
      "stateMutability": "payable",
      "type": "receive"
    }
  ],
  "bytecode": "0x60806040526009805460ff1916905569d3c21bcecceda1000000600b553480156200002957600080fd5b506040518060400160405280600c81526020016b14da5b5c1b1a599e480ccc4d60a21b81525060405180604001604052806004815260200163053494d560e41b815250600b54826004908162000080919062000204565b5060056200008f838262000204565b506001819055620000a260c882620002d0565b600255600680546001600160a01b031916331790556007805462ff00ff60a01b1916600160b01b179055620000d9600a82620002d0565b336000908152602081905260409020819055600290620000fa9083620002f3565b620001069190620002d0565b6008819055336000908152602081905260408120549091620001299084620002f3565b620001359190620002f3565b3060009081526020819052604090205550506007805460ff60a81b19169055506200031b9050565b634e487b7160e01b600052604160045260246000fd5b600181811c908216806200018857607f821691505b602082108103620001a957634e487b7160e01b600052602260045260246000fd5b50919050565b601f821115620001ff576000816000526020600020601f850160051c81016020861015620001da5750805b601f850160051c820191505b81811015620001fb57828155600101620001e6565b5050505b505050565b81516001600160401b038111156200022057620002206200015d565b620002388162000231845462000173565b84620001af565b602080601f831160018114620002705760008415620002575750858301515b600019600386901b1c1916600185901b178555620001fb565b600085815260208120601f198616915b82811015620002a15788860151825594840194600190910190840162000280565b5085821015620002c05787850151600019600388901b60f8161c191681555b5050505050600190811b01905550565b600082620002ee57634e487b7160e01b600052601260045260246000fd5b500490565b818103818111156200031557634e487b7160e01b600052601160045260246000fd5b92915050565b611308806200032b6000396000f3fe60806040526004361061014f5760003560e01c806367b9a286116100b657806395d89b411161006f57806395d89b41146103ee5780639a540abf14610403578063a9059cbb14610416578063ae19139e14610436578063d944392314610456578063f275f64b1461047757600080fd5b806367b9a2861461033e57806370a0823114610353578063715018a6146103895780637ec18cf61461039e57806382247ec0146103b85780638da5cb5b146103ce57600080fd5b806318160ddd1161010857806318160ddd1461027557806327de2e851461028a578063313ce567146102aa5780635b8bec55146102c65780635d0044ca146102fe57806365029d821461031e57600080fd5b806304c0c4761461016357806306fdde031461019a5780630902f1ac146101bc57806311106ee2146101f557806312a54b62146102235780631693e8d41461025457600080fd5b3661015e5761015c610497565b005b600080fd5b34801561016f57600080fd5b506003546101809063ffffffff1681565b60405163ffffffff90911681526020015b60405180910390f35b3480156101a657600080fd5b506101af6105de565b6040516101919190610f81565b3480156101c857600080fd5b506101e0306000908152602081905260409020544791565b60408051928352602083019190915201610191565b34801561020157600080fd5b50610215610210366004610fe5565b610670565b604051908152602001610191565b34801561022f57600080fd5b5060075461024490600160b01b900460ff1681565b6040519015158152602001610191565b34801561026057600080fd5b5060075461024490600160a01b900460ff1681565b34801561028157600080fd5b50600154610215565b34801561029657600080fd5b5061015c6102a5366004611011565b6106d7565b3480156102b657600080fd5b5060405160128152602001610191565b3480156102d257600080fd5b506007546102e6906001600160a01b031681565b6040516001600160a01b039091168152602001610191565b34801561030a57600080fd5b5061015c61031936600461103e565b610777565b34801561032a57600080fd5b5061015c610339366004611084565b6107a6565b34801561034a57600080fd5b5061015c6108ae565b34801561035f57600080fd5b5061021561036e366004611149565b6001600160a01b031660009081526020819052604090205490565b34801561039557600080fd5b5061015c610991565b3480156103aa57600080fd5b506009546102449060ff1681565b3480156103c457600080fd5b5061021560025481565b3480156103da57600080fd5b506006546102e6906001600160a01b031681565b3480156103fa57600080fd5b506101af6109cd565b61015c610411366004611011565b6109dc565b34801561042257600080fd5b50610244610431366004611164565b610b66565b34801561044257600080fd5b5061015c61045136600461118e565b610b9a565b34801561046257600080fd5b5060075461024490600160a81b900460ff1681565b34801561048357600080fd5b5061015c61049236600461118e565b610be2565b600754600160a01b900460ff166104ea5760405162461bcd60e51b815260206004820152601260248201527154726164696e67206e6f7420656e61626c6560701b60448201526064015b60405180910390fd5b30600090815260208190526040812054479061050690346111bf565b61051091906111d6565b600754909150600160b01b900460ff1615610586576002543360009081526020819052604090205461054290836111f8565b11156105865760405162461bcd60e51b815260206004820152601360248201527213585e081dd85b1b195d08195e18d959591959606a1b60448201526064016104e1565b610591303383610c2a565b604080513481526000602082018190528183015260608101839052905133917f49926bbebe8474393f434dfa4f78694c0923efa07d19f2284518bfabd06eb737919081900360800190a250565b6060600480546105ed9061120b565b80601f01602080910402602001604051908101604052809291908181526020018280546106199061120b565b80156106665780601f1061063b57610100808354040283529160200191610666565b820191906000526020600020905b81548152906001019060200180831161064957829003601f168201915b5050505050905090565b600080600061068c306000908152602081905260409020544791565b9150915083156106bd576106a085836111f8565b6106aa82876111bf565b6106b491906111d6565b925050506106d1565b6106c785826111f8565b6106aa83876111bf565b92915050565b6007546001600160a01b031633146107015760405162461bcd60e51b81526004016104e190611245565b60035463ffffffff80831691161061075b5760405162461bcd60e51b815260206004820152601a60248201527f596f752063616e27742073686f7274656e206475726174696f6e00000000000060448201526064016104e1565b6003805463ffffffff191663ffffffff92909216919091179055565b6006546001600160a01b031633146107a15760405162461bcd60e51b81526004016104e190611287565b600255565b6006546001600160a01b031633146107d05760405162461bcd60e51b81526004016104e190611287565b60095460ff16156108235760405162461bcd60e51b815260206004820152601760248201527f50726573616c6520616c726561647920656e61626c656400000000000000000060448201526064016104e1565b6000815160085461083491906111d6565b905060005b825181101561089c5781600080858481518110610858576108586112bc565b60200260200101516001600160a01b03166001600160a01b03168152602001908152602001600020600082825461088f91906111f8565b9091555050600101610839565b50506009805460ff1916600117905550565b6007546001600160a01b031633146108d85760405162461bcd60e51b81526004016104e190611245565b60035463ffffffff1643116109225760405162461bcd60e51b815260206004820152601060248201526f131a5c5d5a591a5d1e481b1bd8dad95960821b60448201526064016104e1565b6007805460ff60a01b1916905560405133904780156108fc02916000818181858888f1935050505015801561095b573d6000803e3d6000fd5b506040514781527f9a5a8a32afd899e7f95003c6e21c9fab2d50e11992439d14472229180c60c7aa9060200160405180910390a1565b6006546001600160a01b031633146109bb5760405162461bcd60e51b81526004016104e190611287565b600680546001600160a01b0319169055565b6060600580546105ed9061120b565b6006546001600160a01b03163314610a065760405162461bcd60e51b81526004016104e190611287565b600754600160a81b900460ff1615610a605760405162461bcd60e51b815260206004820152601760248201527f4c697175696469747920616c726561647920616464656400000000000000000060448201526064016104e1565b6007805460ff60a81b1916600160a81b17905534610aae5760405162461bcd60e51b815260206004820152600b60248201526a139bc8115512081cd95b9d60aa1b60448201526064016104e1565b8063ffffffff164310610afa5760405162461bcd60e51b8152602060048201526014602482015273426c6f636b206e756d62657220746f6f206c6f7760601b60448201526064016104e1565b6003805463ffffffff831663ffffffff199091168117909155600780546001600160a81b0319163317600160a01b179055604080519182523460208301527f0c6c8102f3ac634c5fb327ba1a5d5c18030294d9f5cc309afa9e8a9020a77175910160405180910390a150565b6000306001600160a01b03841603610b8657610b8182610de5565b610b91565b610b91338484610c2a565b50600192915050565b6006546001600160a01b03163314610bc45760405162461bcd60e51b81526004016104e190611287565b60078054911515600160b01b0260ff60b01b19909216919091179055565b6006546001600160a01b03163314610c0c5760405162461bcd60e51b81526004016104e190611287565b60078054911515600160a01b0260ff60a01b19909216919091179055565b336000908152600a60205260409020544363ffffffff90911603610caa5760405162461bcd60e51b815260206004820152603160248201527f596f752063616e2774206d616b652074776f207472616e73616374696f6e7320604482015270696e207468652073616d6520626c6f636b60781b60648201526084016104e1565b336000908152600a60209081526040808320805463ffffffff19164363ffffffff161790556001600160a01b038616835290829052902054811115610d405760405162461bcd60e51b815260206004820152602660248201527f45524332303a207472616e7366657220616d6f756e7420657863656564732062604482015265616c616e636560d01b60648201526084016104e1565b6001600160a01b038084166000908152602081905260409020805483900390558216610d7457600180548290039055610d93565b6001600160a01b03821660009081526020819052604090208054820190555b816001600160a01b0316836001600160a01b03167fddf252ad1be2c89b69c2b068fc378daa952ba7f163c4a11628f55a4df523b3ef83604051610dd891815260200190565b60405180910390a3505050565b600754600160a01b900460ff16610e335760405162461bcd60e51b815260206004820152601260248201527154726164696e67206e6f7420656e61626c6560701b60448201526064016104e1565b30600090815260208190526040812054610e4e9083906111f8565b610e5847846111bf565b610e6291906111d6565b905060008111610eaa5760405162461bcd60e51b815260206004820152601360248201527253656c6c20616d6f756e7420746f6f206c6f7760681b60448201526064016104e1565b80471015610efa5760405162461bcd60e51b815260206004820152601c60248201527f496e73756666696369656e742045544820696e2072657365727665730000000060448201526064016104e1565b610f05333084610c2a565b604051339082156108fc029083906000818181858888f19350505050158015610f32573d6000803e3d6000fd5b50604080516000808252602082018590528183018490526060820152905133917f49926bbebe8474393f434dfa4f78694c0923efa07d19f2284518bfabd06eb737919081900360800190a25050565b60006020808352835180602085015260005b81811015610faf57858101830151858201604001528201610f93565b506000604082860101526040601f19601f8301168501019250505092915050565b80358015158114610fe057600080fd5b919050565b60008060408385031215610ff857600080fd5b8235915061100860208401610fd0565b90509250929050565b60006020828403121561102357600080fd5b813563ffffffff8116811461103757600080fd5b9392505050565b60006020828403121561105057600080fd5b5035919050565b634e487b7160e01b600052604160045260246000fd5b80356001600160a01b0381168114610fe057600080fd5b6000602080838503121561109757600080fd5b823567ffffffffffffffff808211156110af57600080fd5b818501915085601f8301126110c357600080fd5b8135818111156110d5576110d5611057565b8060051b604051601f19603f830116810181811085821117156110fa576110fa611057565b60405291825284820192508381018501918883111561111857600080fd5b938501935b8285101561113d5761112e8561106d565b8452938501939285019261111d565b98975050505050505050565b60006020828403121561115b57600080fd5b6110378261106d565b6000806040838503121561117757600080fd5b6111808361106d565b946020939093013593505050565b6000602082840312156111a057600080fd5b61103782610fd0565b634e487b7160e01b600052601160045260246000fd5b80820281158282048414176106d1576106d16111a9565b6000826111f357634e487b7160e01b600052601260045260246000fd5b500490565b808201808211156106d1576106d16111a9565b600181811c9082168061121f57607f821691505b60208210810361123f57634e487b7160e01b600052602260045260246000fd5b50919050565b60208082526022908201527f596f7520617265206e6f7420746865206c69717569646974792070726f76696460408201526132b960f11b606082015260800190565b6020808252818101527f4f776e61626c653a2063616c6c6572206973206e6f7420746865206f776e6572604082015260600190565b634e487b7160e01b600052603260045260246000fdfea2646970667358221220845d8ec4a8170cb3af2dfc492ee461d2c2b4b9d71d7641337e16b26b6b22ed7264736f6c63430008180033",
  "linkReferences": {},
  "deployedLinkReferences": {}
}